{
  "_format": "hh-sol-artifact-1",
  "contractName": "GovernorAlpha",
  "sourceName": "contracts/Governance/GovernorAlpha.sol",
  "abi": [
    {
      "inputs": [
        {
          "internalType": "address",
          "name": "timelock_",
          "type": "address"
        },
        {
          "internalType": "address",
          "name": "comp_",
          "type": "address"
        },
        {
          "internalType": "address",
          "name": "guardian_",
          "type": "address"
        }
      ],
      "stateMutability": "nonpayable",
      "type": "constructor"
    },
    {
      "anonymous": false,
      "inputs": [
        {
          "indexed": false,
          "internalType": "uint256",
          "name": "id",
          "type": "uint256"
        }
      ],
      "name": "ProposalCanceled",
      "type": "event"
    },
    {
      "anonymous": false,
      "inputs": [
        {
          "indexed": false,
          "internalType": "uint256",
          "name": "id",
          "type": "uint256"
        },
        {
          "indexed": false,
          "internalType": "address",
          "name": "proposer",
          "type": "address"
        },
        {
          "indexed": false,
          "internalType": "address[]",
          "name": "targets",
          "type": "address[]"
        },
        {
          "indexed": false,
          "internalType": "uint256[]",
          "name": "values",
          "type": "uint256[]"
        },
        {
          "indexed": false,
          "internalType": "string[]",
          "name": "signatures",
          "type": "string[]"
        },
        {
          "indexed": false,
          "internalType": "bytes[]",
          "name": "calldatas",
          "type": "bytes[]"
        },
        {
          "indexed": false,
          "internalType": "uint256",
          "name": "startBlock",
          "type": "uint256"
        },
        {
          "indexed": false,
          "internalType": "uint256",
          "name": "endBlock",
          "type": "uint256"
        },
        {
          "indexed": false,
          "internalType": "string",
          "name": "description",
          "type": "string"
        }
      ],
      "name": "ProposalCreated",
      "type": "event"
    },
    {
      "anonymous": false,
      "inputs": [
        {
          "indexed": false,
          "internalType": "uint256",
          "name": "id",
          "type": "uint256"
        }
      ],
      "name": "ProposalExecuted",
      "type": "event"
    },
    {
      "anonymous": false,
      "inputs": [
        {
          "indexed": false,
          "internalType": "uint256",
          "name": "id",
          "type": "uint256"
        },
        {
          "indexed": false,
          "internalType": "uint256",
          "name": "eta",
          "type": "uint256"
        }
      ],
      "name": "ProposalQueued",
      "type": "event"
    },
    {
      "anonymous": false,
      "inputs": [
        {
          "indexed": false,
          "internalType": "address",
          "name": "voter",
          "type": "address"
        },
        {
          "indexed": false,
          "internalType": "uint256",
          "name": "proposalId",
          "type": "uint256"
        },
        {
          "indexed": false,
          "internalType": "bool",
          "name": "support",
          "type": "bool"
        },
        {
          "indexed": false,
          "internalType": "uint256",
          "name": "votes",
          "type": "uint256"
        }
      ],
      "name": "VoteCast",
      "type": "event"
    },
    {
      "inputs": [],
      "name": "BALLOT_TYPEHASH",
      "outputs": [
        {
          "internalType": "bytes32",
          "name": "",
          "type": "bytes32"
        }
      ],
      "stateMutability": "view",
      "type": "function"
    },
    {
      "inputs": [],
      "name": "DOMAIN_TYPEHASH",
      "outputs": [
        {
          "internalType": "bytes32",
          "name": "",
          "type": "bytes32"
        }
      ],
      "stateMutability": "view",
      "type": "function"
    },
    {
      "inputs": [],
      "name": "comp",
      "outputs": [
        {
          "internalType": "contract CompInterface",
          "name": "",
          "type": "address"
        }
      ],
      "stateMutability": "view",
      "type": "function"
    },
    {
      "inputs": [
        {
          "internalType": "uint256",
          "name": "proposalId",
          "type": "uint256"
        }
      ],
      "name": "execute",
      "outputs": [],
      "stateMutability": "payable",
      "type": "function"
    },
    {
      "inputs": [],
      "name": "guardian",
      "outputs": [
        {
          "internalType": "address",
          "name": "",
          "type": "address"
        }
      ],
      "stateMutability": "view",
      "type": "function"
    },
    {
      "inputs": [
        {
          "internalType": "address",
          "name": "",
          "type": "address"
        }
      ],
      "name": "latestProposalIds",
      "outputs": [
        {
          "internalType": "uint256",
          "name": "",
          "type": "uint256"
        }
      ],
      "stateMutability": "view",
      "type": "function"
    },
    {
      "inputs": [],
      "name": "name",
      "outputs": [
        {
          "internalType": "string",
          "name": "",
          "type": "string"
        }
      ],
      "stateMutability": "view",
      "type": "function"
    },
    {
      "inputs": [],
      "name": "proposalCount",
      "outputs": [
        {
          "internalType": "uint256",
          "name": "",
          "type": "uint256"
        }
      ],
      "stateMutability": "view",
      "type": "function"
    },
    {
      "inputs": [],
      "name": "proposalMaxOperations",
      "outputs": [
        {
          "internalType": "uint256",
          "name": "",
          "type": "uint256"
        }
      ],
      "stateMutability": "pure",
      "type": "function"
    },
    {
      "inputs": [],
      "name": "proposalThreshold",
      "outputs": [
        {
          "internalType": "uint256",
          "name": "",
          "type": "uint256"
        }
      ],
      "stateMutability": "pure",
      "type": "function"
    },
    {
      "inputs": [
        {
          "internalType": "uint256",
          "name": "",
          "type": "uint256"
        }
      ],
      "name": "proposals",
      "outputs": [
        {
          "internalType": "uint256",
          "name": "id",
          "type": "uint256"
        },
        {
          "internalType": "address",
          "name": "proposer",
          "type": "address"
        },
        {
          "internalType": "uint256",
          "name": "eta",
          "type": "uint256"
        },
        {
          "internalType": "uint256",
          "name": "startBlock",
          "type": "uint256"
        },
        {
          "internalType": "uint256",
          "name": "endBlock",
          "type": "uint256"
        },
        {
          "internalType": "uint256",
          "name": "forVotes",
          "type": "uint256"
        },
        {
          "internalType": "uint256",
          "name": "againstVotes",
          "type": "uint256"
        },
        {
          "internalType": "bool",
          "name": "canceled",
          "type": "bool"
        },
        {
          "internalType": "bool",
          "name": "executed",
          "type": "bool"
        }
      ],
      "stateMutability": "view",
      "type": "function"
    },
    {
      "inputs": [
        {
          "internalType": "address[]",
          "name": "targets",
          "type": "address[]"
        },
        {
          "internalType": "uint256[]",
          "name": "values",
          "type": "uint256[]"
        },
        {
          "internalType": "string[]",
          "name": "signatures",
          "type": "string[]"
        },
        {
          "internalType": "bytes[]",
          "name": "calldatas",
          "type": "bytes[]"
        },
        {
          "internalType": "string",
          "name": "description",
          "type": "string"
        }
      ],
      "name": "propose",
      "outputs": [
        {
          "internalType": "uint256",
          "name": "",
          "type": "uint256"
        }
      ],
      "stateMutability": "nonpayable",
      "type": "function"
    },
    {
      "inputs": [
        {
          "internalType": "uint256",
          "name": "proposalId",
          "type": "uint256"
        }
      ],
      "name": "queue",
      "outputs": [],
      "stateMutability": "nonpayable",
      "type": "function"
    },
    {
      "inputs": [],
      "name": "quorumVotes",
      "outputs": [
        {
          "internalType": "uint256",
          "name": "",
          "type": "uint256"
        }
      ],
      "stateMutability": "pure",
      "type": "function"
    },
    {
      "inputs": [
        {
          "internalType": "uint256",
          "name": "proposalId",
          "type": "uint256"
        }
      ],
      "name": "state",
      "outputs": [
        {
          "internalType": "enum GovernorAlpha.ProposalState",
          "name": "",
          "type": "uint8"
        }
      ],
      "stateMutability": "view",
      "type": "function"
    },
    {
      "inputs": [],
      "name": "timelock",
      "outputs": [
        {
          "internalType": "contract TimelockInterface",
          "name": "",
          "type": "address"
        }
      ],
      "stateMutability": "view",
      "type": "function"
    },
    {
      "inputs": [],
      "name": "votingDelay",
      "outputs": [
        {
          "internalType": "uint256",
          "name": "",
          "type": "uint256"
        }
      ],
      "stateMutability": "pure",
      "type": "function"
    },
    {
      "inputs": [],
      "name": "votingPeriod",
      "outputs": [
        {
          "internalType": "uint256",
          "name": "",
          "type": "uint256"
        }
      ],
      "stateMutability": "pure",
      "type": "function"
    }
  ],
  "bytecode": "0x60806040523480156200001157600080fd5b50604051620036b5380380620036b5833981810160405281019062000037919062000119565b826000806101000a81548173ffffffffffffffffffffffffffffffffffffffff021916908373ffffffffffffffffffffffffffffffffffffffff16021790555081600160006101000a81548173ffffffffffffffffffffffffffffffffffffffff021916908373ffffffffffffffffffffffffffffffffffffffff16021790555080600260006101000a81548173ffffffffffffffffffffffffffffffffffffffff021916908373ffffffffffffffffffffffffffffffffffffffff160217905550505050620001c8565b6000815190506200011381620001ae565b92915050565b600080600060608486031215620001355762000134620001a9565b5b6000620001458682870162000102565b9350506020620001588682870162000102565b92505060406200016b8682870162000102565b9150509250925092565b6000620001828262000189565b9050919050565b600073ffffffffffffffffffffffffffffffffffffffff82169050919050565b600080fd5b620001b98162000175565b8114620001c557600080fd5b50565b6134dd80620001d86000396000f3fe6080604052600436106101095760003560e01c8063452a932011610095578063da35c66411610064578063da35c6641461037b578063da95691a146103a6578063ddf0b009146103e3578063deaaa7cc1461040c578063fe0d94c11461043757610109565b8063452a9320146102cf5780637bdbe4d0146102fa578063b58131b014610325578063d33219b41461035057610109565b806317977c61116100dc57806317977c61146101d457806320606b701461021157806324bc1a641461023c5780633932abb1146102675780633e4f49e61461029257610109565b8063013cf08b1461010e57806302a251a31461015357806306fdde031461017e578063109d0af8146101a9575b600080fd5b34801561011a57600080fd5b5061013560048036038101906101309190611f86565b610453565b60405161014a999897969594939291906129b6565b60405180910390f35b34801561015f57600080fd5b506101686104db565b60405161017591906128eb565b60405180910390f35b34801561018a57600080fd5b506101936104e5565b6040516101a09190612769565b60405180910390f35b3480156101b557600080fd5b506101be61051e565b6040516101cb9190612718565b60405180910390f35b3480156101e057600080fd5b506101fb60048036038101906101f69190611daf565b610544565b60405161020891906128eb565b60405180910390f35b34801561021d57600080fd5b5061022661055c565b60405161023391906126fd565b60405180910390f35b34801561024857600080fd5b50610251610580565b60405161025e91906128eb565b60405180910390f35b34801561027357600080fd5b5061027c610592565b60405161028991906128eb565b60405180910390f35b34801561029e57600080fd5b506102b960048036038101906102b49190611f86565b61059b565b6040516102c6919061274e565b60405180910390f35b3480156102db57600080fd5b506102e461077e565b6040516102f191906125f7565b60405180910390f35b34801561030657600080fd5b5061030f6107a4565b60405161031c91906128eb565b60405180910390f35b34801561033157600080fd5b5061033a6107ad565b60405161034791906128eb565b60405180910390f35b34801561035c57600080fd5b506103656107bf565b6040516103729190612733565b60405180910390f35b34801561038757600080fd5b506103906107e3565b60405161039d91906128eb565b60405180910390f35b3480156103b257600080fd5b506103cd60048036038101906103c89190611ddc565b6107e9565b6040516103da91906128eb565b60405180910390f35b3480156103ef57600080fd5b5061040a60048036038101906104059190611f86565b610d53565b005b34801561041857600080fd5b50610421611078565b60405161042e91906126fd565b60405180910390f35b610451600480360381019061044c9190611f86565b61109c565b005b60046020528060005260406000206000915090508060000154908060010160009054906101000a900473ffffffffffffffffffffffffffffffffffffffff169080600201549080600701549080600801549080600901549080600a01549080600b0160009054906101000a900460ff169080600b0160019054906101000a900460ff16905089565b6000614380905090565b6040518060400160405280601781526020017f436f6d706f756e6420476f7665726e6f7220416c70686100000000000000000081525081565b600160009054906101000a900473ffffffffffffffffffffffffffffffffffffffff1681565b60056020528060005260406000206000915090505481565b7f2ce9970b46ea1bff1d78000ab660407f50a9499f6742ac914d6e6aa91d8c8b2481565b60006954b40b1f852bda000000905090565b60006001905090565b600081600354101580156105af5750600082115b6105ee576040517f08c379a00000000000000000000000000000000000000000000000000000000081526004016105e5906128ab565b60405180910390fd5b600060046000848152602001908152602001600020905080600b0160009054906101000a900460ff1615610626576002915050610779565b8060070154431161063b576000915050610779565b80600801544311610650576001915050610779565b80600a01548160090154111580610671575061066a610580565b8160090154105b15610680576003915050610779565b600081600201541415610697576004915050610779565b80600b0160019054906101000a900460ff16156106b8576007915050610779565b610763816002015460008054906101000a900473ffffffffffffffffffffffffffffffffffffffff1673ffffffffffffffffffffffffffffffffffffffff1663c1a287e26040518163ffffffff1660e01b815260040160206040518083038186803b15801561072657600080fd5b505afa15801561073a573d6000803e3d6000fd5b505050506040513d601f19601f8201168201806040525081019061075e9190611fb3565b61131c565b4210610773576006915050610779565b60059150505b919050565b600260009054906101000a900473ffffffffffffffffffffffffffffffffffffffff1681565b6000600a905090565b600069152d02c7e14af6800000905090565b60008054906101000a900473ffffffffffffffffffffffffffffffffffffffff1681565b60035481565b60006107f36107ad565b600160009054906101000a900473ffffffffffffffffffffffffffffffffffffffff1673ffffffffffffffffffffffffffffffffffffffff1663782d6fe13361083d43600161137a565b6040518363ffffffff1660e01b815260040161085a929190612612565b60206040518083038186803b15801561087257600080fd5b505afa158015610886573d6000803e3d6000fd5b505050506040513d601f19601f820116820180604052508101906108aa9190611fe0565b6bffffffffffffffffffffffff16116108f8576040517f08c379a00000000000000000000000000000000000000000000000000000000081526004016108ef906127cb565b60405180910390fd5b8451865114801561090a575083518651145b8015610917575082518651145b610956576040517f08c379a000000000000000000000000000000000000000000000000000000000815260040161094d906127ab565b60405180910390fd5b60008651141561099b576040517f08c379a00000000000000000000000000000000000000000000000000000000081526004016109929061286b565b60405180910390fd5b6109a36107a4565b865111156109e6576040517f08c379a00000000000000000000000000000000000000000000000000000000081526004016109dd9061280b565b60405180910390fd5b6000600560003373ffffffffffffffffffffffffffffffffffffffff1673ffffffffffffffffffffffffffffffffffffffff16815260200190815260200160002054905060008114610b11576000610a3d8261059b565b905060016007811115610a5357610a52612f89565b5b816007811115610a6657610a65612f89565b5b1415610aa7576040517f08c379a0000000000000000000000000000000000000000000000000000000008152600401610a9e9061288b565b60405180910390fd5b60006007811115610abb57610aba612f89565b5b816007811115610ace57610acd612f89565b5b1415610b0f576040517f08c379a0000000000000000000000000000000000000000000000000000000008152600401610b06906127eb565b60405180910390fd5b505b6000610b2443610b1f610592565b61131c565b90506000610b3982610b346104db565b61131c565b905060036000815480929190610b4e90612f11565b9190505550600060046000600354815260200190815260200160002090506003548160000181905550338160010160006101000a81548173ffffffffffffffffffffffffffffffffffffffff021916908373ffffffffffffffffffffffffffffffffffffffff1602179055506000816002018190555089816003019080519060200190610bdc9291906115a5565b5088816004019080519060200190610bf592919061162f565b5087816005019080519060200190610c0e92919061167c565b5086816006019080519060200190610c279291906116dc565b5082816007018190555081816008018190555060008160090181905550600081600a0181905550600081600b0160006101000a81548160ff021916908315150217905550600081600b0160016101000a81548160ff0219169083151502179055508060000154600560008360010160009054906101000a900473ffffffffffffffffffffffffffffffffffffffff1673ffffffffffffffffffffffffffffffffffffffff1673ffffffffffffffffffffffffffffffffffffffff168152602001908152602001600020819055507f7d84a6263ae0d98d3329bd7b46bb4e8d6f98cd35a7adb45c274c8b7fd5ebd5e08160000154338c8c8c8c89898e604051610d3799989796959493929190612906565b60405180910390a1806000015494505050505095945050505050565b60046007811115610d6757610d66612f89565b5b610d708261059b565b6007811115610d8257610d81612f89565b5b14610d8c57600080fd5b60006004600083815260200190815260200160002090506000610e4c4260008054906101000a900473ffffffffffffffffffffffffffffffffffffffff1673ffffffffffffffffffffffffffffffffffffffff16636a42b8f86040518163ffffffff1660e01b815260040160206040518083038186803b158015610e0f57600080fd5b505afa158015610e23573d6000803e3d6000fd5b505050506040513d601f19601f82011682018060405250810190610e479190611fb3565b61131c565b905060005b82600301805490508110156110305761101d836003018281548110610e7957610e78612fe7565b5b9060005260206000200160009054906101000a900473ffffffffffffffffffffffffffffffffffffffff16846004018381548110610eba57610eb9612fe7565b5b9060005260206000200154856005018481548110610edb57610eda612fe7565b5b906000526020600020018054610ef090612eae565b80601f0160208091040260200160405190810160405280929190818152602001828054610f1c90612eae565b8015610f695780601f10610f3e57610100808354040283529160200191610f69565b820191906000526020600020905b815481529060010190602001808311610f4c57829003601f168201915b5050505050866006018581548110610f8457610f83612fe7565b5b906000526020600020018054610f9990612eae565b80601f0160208091040260200160405190810160405280929190818152602001828054610fc590612eae565b80156110125780601f10610fe757610100808354040283529160200191611012565b820191906000526020600020905b815481529060010190602001808311610ff557829003601f168201915b5050505050866113d3565b808061102890612f11565b915050610e51565b508082600201819055507f9a2e42fd6722813d69113e7d0079d3d940171428df7373df9c7f7617cfda2892838260405161106b929190612a43565b60405180910390a1505050565b7f25d29a141c984fbffde2ab938dd1e8e79f983ebc805bde69cea901b6a49b086b81565b600560078111156110b0576110af612f89565b5b6110b98261059b565b60078111156110cb576110ca612f89565b5b1461110b576040517f08c379a00000000000000000000000000000000000000000000000000000000081526004016111029061278b565b60405180910390fd5b6000600460008381526020019081526020016000209050600181600b0160016101000a81548160ff02191690831515021790555060005b81600301805490508110156112e05760008054906101000a900473ffffffffffffffffffffffffffffffffffffffff1673ffffffffffffffffffffffffffffffffffffffff16630825f38f8360040183815481106111a3576111a2612fe7565b5b90600052602060002001548460030184815481106111c4576111c3612fe7565b5b9060005260206000200160009054906101000a900473ffffffffffffffffffffffffffffffffffffffff1685600401858154811061120557611204612fe7565b5b906000526020600020015486600501868154811061122657611225612fe7565b5b9060005260206000200187600601878154811061124657611245612fe7565b5b9060005260206000200188600201546040518763ffffffff1660e01b815260040161127595949392919061269c565b6000604051808303818588803b15801561128e57600080fd5b505af11580156112a2573d6000803e3d6000fd5b50505050506040513d6000823e3d601f19601f820116820180604052508101906112cc9190611f3d565b5080806112d890612f11565b915050611142565b507f712ae1383f79ac853f8d882153778e0260ef8f03b504e2866e0593e04d2b291f8260405161131091906128eb565b60405180910390a15050565b600080828461132b9190612d0b565b905083811015611370576040517f08c379a00000000000000000000000000000000000000000000000000000000081526004016113679061282b565b60405180910390fd5b8091505092915050565b6000828211156113bf576040517f08c379a00000000000000000000000000000000000000000000000000000000081526004016113b6906128cb565b60405180910390fd5b81836113cb9190612d61565b905092915050565b60008054906101000a900473ffffffffffffffffffffffffffffffffffffffff1673ffffffffffffffffffffffffffffffffffffffff1663f2b06537868686868660405160200161142895949392919061263b565b604051602081830303815290604052805190602001206040518263ffffffff1660e01b815260040161145a91906126fd565b60206040518083038186803b15801561147257600080fd5b505afa158015611486573d6000803e3d6000fd5b505050506040513d601f19601f820116820180604052508101906114aa9190611ee3565b156114ea576040517f08c379a00000000000000000000000000000000000000000000000000000000081526004016114e19061284b565b60405180910390fd5b60008054906101000a900473ffffffffffffffffffffffffffffffffffffffff1673ffffffffffffffffffffffffffffffffffffffff16633a66f90186868686866040518663ffffffff1660e01b815260040161154b95949392919061263b565b602060405180830381600087803b15801561156557600080fd5b505af1158015611579573d6000803e3d6000fd5b505050506040513d601f19601f8201168201806040525081019061159d9190611f10565b505050505050565b82805482825590600052602060002090810192821561161e579160200282015b8281111561161d5782518260006101000a81548173ffffffffffffffffffffffffffffffffffffffff021916908373ffffffffffffffffffffffffffffffffffffffff160217905550916020019190600101906115c5565b5b50905061162b919061173c565b5090565b82805482825590600052602060002090810192821561166b579160200282015b8281111561166a57825182559160200191906001019061164f565b5b509050611678919061173c565b5090565b8280548282559060005260206000209081019282156116cb579160200282015b828111156116ca5782518290805190602001906116ba929190611759565b509160200191906001019061169c565b5b5090506116d891906117df565b5090565b82805482825590600052602060002090810192821561172b579160200282015b8281111561172a57825182908051906020019061171a929190611803565b50916020019190600101906116fc565b5b5090506117389190611889565b5090565b5b8082111561175557600081600090555060010161173d565b5090565b82805461176590612eae565b90600052602060002090601f01602090048101928261178757600085556117ce565b82601f106117a057805160ff19168380011785556117ce565b828001600101855582156117ce579182015b828111156117cd5782518255916020019190600101906117b2565b5b5090506117db919061173c565b5090565b5b808211156117ff57600081816117f691906118ad565b506001016117e0565b5090565b82805461180f90612eae565b90600052602060002090601f0160209004810192826118315760008555611878565b82601f1061184a57805160ff1916838001178555611878565b82800160010185558215611878579182015b8281111561187757825182559160200191906001019061185c565b5b509050611885919061173c565b5090565b5b808211156118a957600081816118a091906118ed565b5060010161188a565b5090565b5080546118b990612eae565b6000825580601f106118cb57506118ea565b601f0160209004906000526020600020908101906118e9919061173c565b5b50565b5080546118f990612eae565b6000825580601f1061190b575061192a565b601f016020900490600052602060002090810190611929919061173c565b5b50565b600061194061193b84612a91565b612a6c565b905080838252602082019050828560208602820111156119635761196261304a565b5b60005b8581101561199357816119798882611bef565b845260208401935060208301925050600181019050611966565b5050509392505050565b60006119b06119ab84612abd565b612a6c565b905080838252602082019050828560208602820111156119d3576119d261304a565b5b60005b85811015611a2157813567ffffffffffffffff8111156119f9576119f8613045565b5b808601611a068982611ce6565b855260208501945060208401935050506001810190506119d6565b5050509392505050565b6000611a3e611a3984612ae9565b612a6c565b90508083825260208201905082856020860282011115611a6157611a6061304a565b5b60005b85811015611aaf57813567ffffffffffffffff811115611a8757611a86613045565b5b808601611a948982611d42565b85526020850194506020840193505050600181019050611a64565b5050509392505050565b6000611acc611ac784612b15565b612a6c565b90508083825260208201905082856020860282011115611aef57611aee61304a565b5b60005b85811015611b1f5781611b058882611d70565b845260208401935060208301925050600181019050611af2565b5050509392505050565b6000611b3c611b3784612b41565b612a6c565b905082815260208101848484011115611b5857611b5761304f565b5b611b63848285612e6c565b509392505050565b6000611b7e611b7984612b41565b612a6c565b905082815260208101848484011115611b9a57611b9961304f565b5b611ba5848285612e7b565b509392505050565b6000611bc0611bbb84612b72565b612a6c565b905082815260208101848484011115611bdc57611bdb61304f565b5b611be7848285612e6c565b509392505050565b600081359050611bfe81613434565b92915050565b600082601f830112611c1957611c18613045565b5b8135611c2984826020860161192d565b91505092915050565b600082601f830112611c4757611c46613045565b5b8135611c5784826020860161199d565b91505092915050565b600082601f830112611c7557611c74613045565b5b8135611c85848260208601611a2b565b91505092915050565b600082601f830112611ca357611ca2613045565b5b8135611cb3848260208601611ab9565b91505092915050565b600081519050611ccb8161344b565b92915050565b600081519050611ce081613462565b92915050565b600082601f830112611cfb57611cfa613045565b5b8135611d0b848260208601611b29565b91505092915050565b600082601f830112611d2957611d28613045565b5b8151611d39848260208601611b6b565b91505092915050565b600082601f830112611d5757611d56613045565b5b8135611d67848260208601611bad565b91505092915050565b600081359050611d7f81613479565b92915050565b600081519050611d9481613479565b92915050565b600081519050611da981613490565b92915050565b600060208284031215611dc557611dc4613059565b5b6000611dd384828501611bef565b91505092915050565b600080600080600060a08688031215611df857611df7613059565b5b600086013567ffffffffffffffff811115611e1657611e15613054565b5b611e2288828901611c04565b955050602086013567ffffffffffffffff811115611e4357611e42613054565b5b611e4f88828901611c8e565b945050604086013567ffffffffffffffff811115611e7057611e6f613054565b5b611e7c88828901611c60565b935050606086013567ffffffffffffffff811115611e9d57611e9c613054565b5b611ea988828901611c32565b925050608086013567ffffffffffffffff811115611eca57611ec9613054565b5b611ed688828901611d42565b9150509295509295909350565b600060208284031215611ef957611ef8613059565b5b6000611f0784828501611cbc565b91505092915050565b600060208284031215611f2657611f25613059565b5b6000611f3484828501611cd1565b91505092915050565b600060208284031215611f5357611f52613059565b5b600082015167ffffffffffffffff811115611f7157611f70613054565b5b611f7d84828501611d14565b91505092915050565b600060208284031215611f9c57611f9b613059565b5b6000611faa84828501611d70565b91505092915050565b600060208284031215611fc957611fc8613059565b5b6000611fd784828501611d85565b91505092915050565b600060208284031215611ff657611ff5613059565b5b600061200484828501611d9a565b91505092915050565b60006120198383612065565b60208301905092915050565b60006120318383612247565b905092915050565b60006120458383612366565b905092915050565b600061205983836125d9565b60208301905092915050565b61206e81612d95565b82525050565b61207d81612d95565b82525050565b600061208e82612c0d565b6120988185612c83565b93506120a383612ba3565b8060005b838110156120d45781516120bb888261200d565b97506120c683612c4f565b9250506001810190506120a7565b5085935050505092915050565b60006120ec82612c18565b6120f68185612c94565b93508360208202850161210885612bb3565b8060005b8581101561214457848403895281516121258582612025565b945061213083612c5c565b925060208a0199505060018101905061210c565b50829750879550505050505092915050565b600061216182612c23565b61216b8185612ca5565b93508360208202850161217d85612bc3565b8060005b858110156121b9578484038952815161219a8582612039565b94506121a583612c69565b925060208a01995050600181019050612181565b50829750879550505050505092915050565b60006121d682612c2e565b6121e08185612cb6565b93506121eb83612bd3565b8060005b8381101561221c578151612203888261204d565b975061220e83612c76565b9250506001810190506121ef565b5085935050505092915050565b61223281612da7565b82525050565b61224181612db3565b82525050565b600061225282612c39565b61225c8185612cc7565b935061226c818560208601612e7b565b6122758161305e565b840191505092915050565b600061228b82612c39565b6122958185612cd8565b93506122a5818560208601612e7b565b6122ae8161305e565b840191505092915050565b600081546122c681612eae565b6122d08186612cd8565b945060018216600081146122eb57600181146122fd57612330565b60ff1983168652602086019350612330565b61230685612be3565b60005b8381101561232857815481890152600182019150602081019050612309565b808801955050505b50505092915050565b61234281612e12565b82525050565b61235181612e36565b82525050565b61236081612e5a565b82525050565b600061237182612c44565b61237b8185612ce9565b935061238b818560208601612e7b565b6123948161305e565b840191505092915050565b60006123aa82612c44565b6123b48185612cfa565b93506123c4818560208601612e7b565b6123cd8161305e565b840191505092915050565b600081546123e581612eae565b6123ef8186612cfa565b9450600182166000811461240a576001811461241c5761244f565b60ff198316865260208601935061244f565b61242585612bf8565b60005b8381101561244757815481890152600182019150602081019050612428565b808801955050505b50505092915050565b6000612465604583612cfa565b91506124708261306f565b606082019050919050565b6000612488602d83612cfa565b9150612493826130e4565b604082019050919050565b60006124ab602783612cfa565b91506124b682613133565b604082019050919050565b60006124ce605983612cfa565b91506124d982613182565b606082019050919050565b60006124f1602883612cfa565b91506124fc826131f7565b604082019050919050565b6000612514601183612cfa565b915061251f82613246565b602082019050919050565b6000612537604483612cfa565b91506125428261326f565b606082019050919050565b600061255a602c83612cfa565b9150612565826132e4565b604082019050919050565b600061257d605883612cfa565b915061258882613333565b606082019050919050565b60006125a0602783612cfa565b91506125ab826133a8565b604082019050919050565b60006125c3601583612cfa565b91506125ce826133f7565b602082019050919050565b6125e281612df0565b82525050565b6125f181612df0565b82525050565b600060208201905061260c6000830184612074565b92915050565b60006040820190506126276000830185612074565b61263460208301846125e8565b9392505050565b600060a0820190506126506000830188612074565b61265d60208301876125e8565b818103604083015261266f818661239f565b905081810360608301526126838185612280565b905061269260808301846125e8565b9695505050505050565b600060a0820190506126b16000830188612074565b6126be60208301876125e8565b81810360408301526126d081866123d8565b905081810360608301526126e481856122b9565b90506126f360808301846125e8565b9695505050505050565b60006020820190506127126000830184612238565b92915050565b600060208201905061272d6000830184612339565b92915050565b60006020820190506127486000830184612348565b92915050565b60006020820190506127636000830184612357565b92915050565b60006020820190508181036000830152612783818461239f565b905092915050565b600060208201905081810360008301526127a481612458565b9050919050565b600060208201905081810360008301526127c48161247b565b9050919050565b600060208201905081810360008301526127e48161249e565b9050919050565b60006020820190508181036000830152612804816124c1565b9050919050565b60006020820190508181036000830152612824816124e4565b9050919050565b6000602082019050818103600083015261284481612507565b9050919050565b600060208201905081810360008301526128648161252a565b9050919050565b600060208201905081810360008301526128848161254d565b9050919050565b600060208201905081810360008301526128a481612570565b9050919050565b600060208201905081810360008301526128c481612593565b9050919050565b600060208201905081810360008301526128e4816125b6565b9050919050565b600060208201905061290060008301846125e8565b92915050565b60006101208201905061291c600083018c6125e8565b612929602083018b612074565b818103604083015261293b818a612083565b9050818103606083015261294f81896121cb565b905081810360808301526129638188612156565b905081810360a083015261297781876120e1565b905061298660c08301866125e8565b61299360e08301856125e8565b8181036101008301526129a6818461239f565b90509a9950505050505050505050565b6000610120820190506129cc600083018c6125e8565b6129d9602083018b612074565b6129e6604083018a6125e8565b6129f360608301896125e8565b612a0060808301886125e8565b612a0d60a08301876125e8565b612a1a60c08301866125e8565b612a2760e0830185612229565b612a35610100830184612229565b9a9950505050505050505050565b6000604082019050612a5860008301856125e8565b612a6560208301846125e8565b9392505050565b6000612a76612a87565b9050612a828282612ee0565b919050565b6000604051905090565b600067ffffffffffffffff821115612aac57612aab613016565b5b602082029050602081019050919050565b600067ffffffffffffffff821115612ad857612ad7613016565b5b602082029050602081019050919050565b600067ffffffffffffffff821115612b0457612b03613016565b5b602082029050602081019050919050565b600067ffffffffffffffff821115612b3057612b2f613016565b5b602082029050602081019050919050565b600067ffffffffffffffff821115612b5c57612b5b613016565b5b612b658261305e565b9050602081019050919050565b600067ffffffffffffffff821115612b8d57612b8c613016565b5b612b968261305e565b9050602081019050919050565b6000819050602082019050919050565b6000819050602082019050919050565b6000819050602082019050919050565b6000819050602082019050919050565b60008190508160005260206000209050919050565b60008190508160005260206000209050919050565b600081519050919050565b600081519050919050565b600081519050919050565b600081519050919050565b600081519050919050565b600081519050919050565b6000602082019050919050565b6000602082019050919050565b6000602082019050919050565b6000602082019050919050565b600082825260208201905092915050565b600082825260208201905092915050565b600082825260208201905092915050565b600082825260208201905092915050565b600082825260208201905092915050565b600082825260208201905092915050565b600082825260208201905092915050565b600082825260208201905092915050565b6000612d1682612df0565b9150612d2183612df0565b9250827fffffffffffffffffffffffffffffffffffffffffffffffffffffffffffffffff03821115612d5657612d55612f5a565b5b828201905092915050565b6000612d6c82612df0565b9150612d7783612df0565b925082821015612d8a57612d89612f5a565b5b828203905092915050565b6000612da082612dd0565b9050919050565b60008115159050919050565b6000819050919050565b6000819050612dcb82613420565b919050565b600073ffffffffffffffffffffffffffffffffffffffff82169050919050565b6000819050919050565b60006bffffffffffffffffffffffff82169050919050565b6000612e1d82612e24565b9050919050565b6000612e2f82612dd0565b9050919050565b6000612e4182612e48565b9050919050565b6000612e5382612dd0565b9050919050565b6000612e6582612dbd565b9050919050565b82818337600083830152505050565b60005b83811015612e99578082015181840152602081019050612e7e565b83811115612ea8576000848401525b50505050565b60006002820490506001821680612ec657607f821691505b60208210811415612eda57612ed9612fb8565b5b50919050565b612ee98261305e565b810181811067ffffffffffffffff82111715612f0857612f07613016565b5b80604052505050565b6000612f1c82612df0565b91507fffffffffffffffffffffffffffffffffffffffffffffffffffffffffffffffff821415612f4f57612f4e612f5a565b5b600182019050919050565b7f4e487b7100000000000000000000000000000000000000000000000000000000600052601160045260246000fd5b7f4e487b7100000000000000000000000000000000000000000000000000000000600052602160045260246000fd5b7f4e487b7100000000000000000000000000000000000000000000000000000000600052602260045260246000fd5b7f4e487b7100000000000000000000000000000000000000000000000000000000600052603260045260246000fd5b7f4e487b7100000000000000000000000000000000000000000000000000000000600052604160045260246000fd5b600080fd5b600080fd5b600080fd5b600080fd5b600080fd5b6000601f19601f8301169050919050565b7f476f7665726e6f72416c7068613a3a657865637574653a2070726f706f73616c60008201527f2063616e206f6e6c79206265206578656375746564206966206974206973207160208201527f7565756564000000000000000000000000000000000000000000000000000000604082015250565b7f70726f706f73616c2066756e6374696f6e20696e666f726d6174696f6e20706160008201527f72697479206d69736d6174636800000000000000000000000000000000000000602082015250565b7f70726f706f73657220766f7465732062656c6f772070726f706f73616c20746860008201527f726573686f6c6400000000000000000000000000000000000000000000000000602082015250565b7f476f7665726e6f72416c7068613a3a70726f706f73653a206f6e65206c69766560008201527f2070726f706f73616c207065722070726f706f7365722c20666f756e6420616e60208201527f20616c72656164792070656e64696e672070726f706f73616c00000000000000604082015250565b7f476f7665726e6f72416c7068613a3a70726f706f73653a20746f6f206d616e7960008201527f20616374696f6e73000000000000000000000000000000000000000000000000602082015250565b7f6164646974696f6e206f766572666c6f77000000000000000000000000000000600082015250565b7f476f7665726e6f72416c7068613a3a5f71756575654f725265766572743a207060008201527f726f706f73616c20616374696f6e20616c72656164792071756575656420617460208201527f2065746100000000000000000000000000000000000000000000000000000000604082015250565b7f476f7665726e6f72416c7068613a3a70726f706f73653a206d7573742070726f60008201527f7669646520616374696f6e730000000000000000000000000000000000000000602082015250565b7f476f7665726e6f72416c7068613a3a70726f706f73653a206f6e65206c69766560008201527f2070726f706f73616c207065722070726f706f7365722c20666f756e6420616e60208201527f20616c7265616479206163746976652070726f706f73616c0000000000000000604082015250565b7f476f7665726e6f72416c7068613a2073746174653a20696e76616c696420707260008201527f6f7073616c496400000000000000000000000000000000000000000000000000602082015250565b7f7375627472616374696f6e20756e646572666c6f770000000000000000000000600082015250565b6008811061343157613430612f89565b5b50565b61343d81612d95565b811461344857600080fd5b50565b61345481612da7565b811461345f57600080fd5b50565b61346b81612db3565b811461347657600080fd5b50565b61348281612df0565b811461348d57600080fd5b50565b61349981612dfa565b81146134a457600080fd5b5056fea26469706673582212201ef27cbd3d1e91eaf774d3462f188032bd5d09a06db9fc5cc127a3743af4ed0364736f6c63430008050033",
  "linkReferences": {},
  "deployedLinkReferences": {}
}